{
  "abi": [
    {
      "inputs": [
        {
          "internalType": "address",
          "name": "_weth",
          "type": "address"
        },
        {
          "internalType": "address",
          "name": "_insuranceFund",
          "type": "address"
        },
        {
          "internalType": "address",
          "name": "_positionManager",
          "type": "address"
        },
        {
          "internalType": "address",
          "name": "_positionMerger",
          "type": "address"
        },
        {
          "internalType": "address",
          "name": "_orderCreator",
          "type": "address"
        }
      ],
      "stateMutability": "nonpayable",
      "type": "constructor"
    },
    {
      "inputs": [],
      "name": "BAD_DEBT",
      "type": "error"
    },
    {
      "inputs": [],
      "name": "INACTIVE",
      "type": "error"
    },
    {
      "inputs": [],
      "name": "INSUFFICIENT_LIQUIDITY",
      "type": "error"
    },
    {
      "inputs": [],
      "name": "INSUFFICIENT_MARGIN",
      "type": "error"
    },
    {
      "inputs": [],
      "name": "INSUFFICIENT_OPEN_NOTIONAL",
      "type": "error"
    },
    {
      "inputs": [],
      "name": "INSUFFICIENT_SIZE",
      "type": "error"
    },
    {
      "inputs": [],
      "name": "INVALID_AMM",
      "type": "error"
    },
    {
      "inputs": [],
      "name": "INVALID_MARGIN_RATIO",
      "type": "error"
    },
    {
      "inputs": [],
      "name": "INVALID_SIDE",
      "type": "error"
    },
    {
      "inputs": [],
      "name": "INVALID_TRIGGER_AMOUNT",
      "type": "error"
    },
    {
      "inputs": [],
      "name": "LIQUIDATABLE",
      "type": "error"
    },
    {
      "inputs": [],
      "name": "NOT_LIMIT_CLOSE",
      "type": "error"
    },
    {
      "inputs": [],
      "name": "NOT_LIQUIDATABLE",
      "type": "error"
    },
    {
      "inputs": [],
      "name": "NOT_REDUCE_ONLY",
      "type": "error"
    },
    {
      "inputs": [],
      "name": "NOT_TRADER",
      "type": "error"
    },
    {
      "inputs": [],
      "name": "NO_POSITION",
      "type": "error"
    },
    {
      "inputs": [],
      "name": "NewOwnerIsZeroAddress",
      "type": "error"
    },
    {
      "inputs": [],
      "name": "NoHandoverRequest",
      "type": "error"
    },
    {
      "inputs": [],
      "name": "OPEN_INTEREST_CAP_EXCEEDED",
      "type": "error"
    },
    {
      "inputs": [],
      "name": "OVER_DIVERGENCE_CAP",
      "type": "error"
    },
    {
      "inputs": [],
      "name": "TRIGGER_INVALID",
      "type": "error"
    },
    {
      "inputs": [],
      "name": "TRIGGER_ON_MARK",
      "type": "error"
    },
    {
      "inputs": [],
      "name": "Unauthorized",
      "type": "error"
    },
    {
      "anonymous": false,
      "inputs": [],
      "name": "Activated",
      "type": "event"
    },
    {
      "anonymous": false,
      "inputs": [],
      "name": "Deactived",
      "type": "event"
    },
    {
      "anonymous": false,
      "inputs": [
        {
          "indexed": true,
          "internalType": "contract IAMM",
          "name": "amm",
          "type": "address"
        },
        {
          "indexed": false,
          "internalType": "uint256",
          "name": "markPrice",
          "type": "uint256"
        },
        {
          "indexed": false,
          "internalType": "uint256",
          "name": "indexPrice",
          "type": "uint256"
        },
        {
          "indexed": false,
          "internalType": "int256",
          "name": "premiumFraction",
          "type": "int256"
        },
        {
          "indexed": false,
          "internalType": "int256",
          "name": "premiumFractionPerShare",
          "type": "int256"
        }
      ],
      "name": "FundingSettled",
      "type": "event"
    },
    {
      "anonymous": false,
      "inputs": [
        {
          "indexed": false,
          "internalType": "uint8",
          "name": "version",
          "type": "uint8"
        }
      ],
      "name": "Initialized",
      "type": "event"
    },
    {
      "anonymous": false,
      "inputs": [
        {
          "indexed": true,
          "internalType": "uint256",
          "name": "id",
          "type": "uint256"
        },
        {
          "indexed": false,
          "internalType": "contract IAMM",
          "name": "amm",
          "type": "address"
        },
        {
          "indexed": false,
          "internalType": "bool",
          "name": "filled",
          "type": "bool"
        }
      ],
      "name": "LimitOrderRemoved",
      "type": "event"
    },
    {
      "anonymous": false,
      "inputs": [
        {
          "indexed": true,
          "internalType": "uint256",
          "name": "id",
          "type": "uint256"
        },
        {
          "components": [
            {
              "internalType": "address",
              "name": "trader",
              "type": "address"
            },
            {
              "internalType": "contract IAMM",
              "name": "amm",
              "type": "address"
            },
            {
              "internalType": "enum Side",
              "name": "side",
              "type": "uint8"
            },
            {
              "internalType": "uint256",
              "name": "trigger",
              "type": "uint256"
            },
            {
              "internalType": "uint256",
              "name": "quoteAmount",
              "type": "uint256"
            },
            {
              "internalType": "uint256",
              "name": "leverage",
              "type": "uint256"
            },
            {
              "internalType": "bool",
              "name": "reduceOnly",
              "type": "bool"
            }
          ],
          "indexed": false,
          "internalType": "struct LimitOrder",
          "name": "order",
          "type": "tuple"
        }
      ],
      "name": "LimitOrderUpdated",
      "type": "event"
    },
    {
      "anonymous": false,
      "inputs": [
        {
          "indexed": true,
          "internalType": "contract IAMM",
          "name": "amm",
          "type": "address"
        },
        {
          "indexed": true,
          "internalType": "address",
          "name": "maker",
          "type": "address"
        },
        {
          "indexed": false,
          "internalType": "uint256",
          "name": "liquidity",
          "type": "uint256"
        },
        {
          "indexed": false,
          "internalType": "int256",
          "name": "fundingPayment",
          "type": "int256"
        }
      ],
      "name": "LiquidityAdded",
      "type": "event"
    },
    {
      "anonymous": false,
      "inputs": [
        {
          "indexed": true,
          "internalType": "contract IAMM",
          "name": "amm",
          "type": "address"
        },
        {
          "indexed": true,
          "internalType": "address",
          "name": "trader",
          "type": "address"
        },
        {
          "indexed": false,
          "internalType": "uint256",
          "name": "liquidity",
          "type": "uint256"
        },
        {
          "indexed": false,
          "internalType": "int256",
          "name": "sizeRemoved",
          "type": "int256"
        },
        {
          "indexed": false,
          "internalType": "uint256",
          "name": "marginRemoved",
          "type": "uint256"
        },
        {
          "indexed": false,
          "internalType": "uint256",
          "name": "feeRealized",
          "type": "uint256"
        }
      ],
      "name": "LiquidityRemoved",
      "type": "event"
    },
    {
      "anonymous": false,
      "inputs": [
        {
          "indexed": true,
          "internalType": "contract IAMM",
          "name": "amm",
          "type": "address"
        },
        {
          "indexed": true,
          "internalType": "address",
          "name": "trader",
          "type": "address"
        },
        {
          "indexed": false,
          "internalType": "uint256",
          "name": "amount",
          "type": "uint256"
        }
      ],
      "name": "MarginAdded",
      "type": "event"
    },
    {
      "anonymous": false,
      "inputs": [
        {
          "indexed": true,
          "internalType": "contract IAMM",
          "name": "amm",
          "type": "address"
        },
        {
          "indexed": true,
          "internalType": "address",
          "name": "trader",
          "type": "address"
        },
        {
          "indexed": false,
          "internalType": "uint256",
          "name": "amount",
          "type": "uint256"
        }
      ],
      "name": "MarginRemoved",
      "type": "event"
    },
    {
      "anonymous": false,
      "inputs": [
        {
          "indexed": true,
          "internalType": "contract IAMM",
          "name": "amm",
          "type": "address"
        },
        {
          "indexed": false,
          "internalType": "uint256",
          "name": "newOpenInterest",
          "type": "uint256"
        }
      ],
      "name": "OpenInterestChanged",
      "type": "event"
    },
    {
      "anonymous": false,
      "inputs": [
        {
          "indexed": true,
          "internalType": "address",
          "name": "pendingOwner",
          "type": "address"
        }
      ],
      "name": "OwnershipHandoverCanceled",
      "type": "event"
    },
    {
      "anonymous": false,
      "inputs": [
        {
          "indexed": true,
          "internalType": "address",
          "name": "pendingOwner",
          "type": "address"
        }
      ],
      "name": "OwnershipHandoverRequested",
      "type": "event"
    },
    {
      "anonymous": false,
      "inputs": [
        {
          "indexed": true,
          "internalType": "address",
          "name": "oldOwner",
          "type": "address"
        },
        {
          "indexed": true,
          "internalType": "address",
          "name": "newOwner",
          "type": "address"
        }
      ],
      "name": "OwnershipTransferred",
      "type": "event"
    },
    {
      "anonymous": false,
      "inputs": [
        {
          "indexed": true,
          "internalType": "contract IAMM",
          "name": "amm",
          "type": "address"
        },
        {
          "indexed": true,
          "internalType": "address",
          "name": "trader",
          "type": "address"
        },
        {
          "indexed": false,
          "internalType": "uint256",
          "name": "margin",
          "type": "uint256"
        },
        {
          "indexed": false,
          "internalType": "int256",
          "name": "size",
          "type": "int256"
        },
        {
          "indexed": false,
          "internalType": "uint256",
          "name": "exchangedQuote",
          "type": "uint256"
        },
        {
          "indexed": false,
          "internalType": "int256",
          "name": "exchangedBase",
          "type": "int256"
        },
        {
          "indexed": false,
          "internalType": "int256",
          "name": "realizedPnL",
          "type": "int256"
        },
        {
          "indexed": false,
          "internalType": "int256",
          "name": "fundingPayment",
          "type": "int256"
        },
        {
          "indexed": false,
          "internalType": "uint256",
          "name": "markPrice",
          "type": "uint256"
        },
        {
          "indexed": false,
          "internalType": "uint256",
          "name": "ifFee",
          "type": "uint256"
        },
        {
          "indexed": false,
          "internalType": "uint256",
          "name": "ammFee",
          "type": "uint256"
        },
        {
          "indexed": false,
          "internalType": "uint256",
          "name": "limitFee",
          "type": "uint256"
        },
        {
          "indexed": false,
          "internalType": "uint256",
          "name": "liquidationPenalty",
          "type": "uint256"
        },
        {
          "indexed": false,
          "internalType": "uint256",
          "name": "keeperFee",
          "type": "uint256"
        }
      ],
      "name": "PositionChanged",
      "type": "event"
    },
    {
      "anonymous": false,
      "inputs": [
        {
          "indexed": true,
          "internalType": "bytes32",
          "name": "id",
          "type": "bytes32"
        },
        {
          "indexed": true,
          "internalType": "contract IAMM",
          "name": "amm",
          "type": "address"
        },
        {
          "indexed": true,
          "internalType": "address",
          "name": "keeper",
          "type": "address"
        }
      ],
      "name": "TriggerOrderRemoved",
      "type": "event"
    },
    {
      "anonymous": false,
      "inputs": [
        {
          "indexed": true,
          "internalType": "bytes32",
          "name": "id",
          "type": "bytes32"
        },
        {
          "components": [
            {
              "internalType": "address",
              "name": "trader",
              "type": "address"
            },
            {
              "internalType": "contract IAMM",
              "name": "amm",
              "type": "address"
            },
            {
              "internalType": "uint256",
              "name": "trigger",
              "type": "uint256"
            },
            {
              "internalType": "uint256",
              "name": "size",
              "type": "uint256"
            },
            {
              "internalType": "uint256",
              "name": "quoteLimit",
              "type": "uint256"
            },
            {
              "internalType": "bool",
              "name": "takeProfit",
              "type": "bool"
            }
          ],
          "indexed": false,
          "internalType": "struct TriggerOrder",
          "name": "order",
          "type": "tuple"
        }
      ],
      "name": "TriggerOrderUpdated",
      "type": "event"
    },
    {
      "inputs": [
        {
          "internalType": "contract IAMM",
          "name": "amm",
          "type": "address"
        },
        {
          "internalType": "uint256",
          "name": "margin",
          "type": "uint256"
        },
        {
          "internalType": "uint256",
          "name": "leverage",
          "type": "uint256"
        },
        {
          "internalType": "uint256",
          "name": "minLiquidity",
          "type": "uint256"
        }
      ],
      "name": "addLiquidity",
      "outputs": [
        {
          "internalType": "uint256",
          "name": "liquidity",
          "type": "uint256"
        }
      ],
      "stateMutability": "nonpayable",
      "type": "function"
    },
    {
      "inputs": [
        {
          "internalType": "contract IAMM",
          "name": "amm",
          "type": "address"
        },
        {
          "internalType": "uint256",
          "name": "margin",
          "type": "uint256"
        }
      ],
      "name": "addMargin",
      "outputs": [],
      "stateMutability": "nonpayable",
      "type": "function"
    },
    {
      "inputs": [],
      "name": "cancelOwnershipHandover",
      "outputs": [],
      "stateMutability": "payable",
      "type": "function"
    },
    {
      "inputs": [
        {
          "internalType": "contract IAMM",
          "name": "amm",
          "type": "address"
        },
        {
          "internalType": "uint256",
          "name": "size",
          "type": "uint256"
        },
        {
          "internalType": "uint256",
          "name": "quoteLimit",
          "type": "uint256"
        }
      ],
      "name": "closePosition",
      "outputs": [],
      "stateMutability": "nonpayable",
      "type": "function"
    },
    {
      "inputs": [
        {
          "internalType": "contract IAMM",
          "name": "amm",
          "type": "address"
        },
        {
          "internalType": "bytes32",
          "name": "id",
          "type": "bytes32"
        }
      ],
      "name": "closePositionKeeper",
      "outputs": [],
      "stateMutability": "nonpayable",
      "type": "function"
    },
    {
      "inputs": [
        {
          "internalType": "address",
          "name": "pendingOwner",
          "type": "address"
        }
      ],
      "name": "completeOwnershipHandover",
      "outputs": [],
      "stateMutability": "payable",
      "type": "function"
    },
    {
      "inputs": [
        {
          "components": [
            {
              "internalType": "address",
              "name": "trader",
              "type": "address"
            },
            {
              "internalType": "contract IAMM",
              "name": "amm",
              "type": "address"
            },
            {
              "internalType": "enum Side",
              "name": "side",
              "type": "uint8"
            },
            {
              "internalType": "uint256",
              "name": "trigger",
              "type": "uint256"
            },
            {
              "internalType": "uint256",
              "name": "quoteAmount",
              "type": "uint256"
            },
            {
              "internalType": "uint256",
              "name": "leverage",
              "type": "uint256"
            },
            {
              "internalType": "bool",
              "name": "reduceOnly",
              "type": "bool"
            }
          ],
          "internalType": "struct LimitOrder",
          "name": "order",
          "type": "tuple"
        }
      ],
      "name": "createLimitOrder",
      "outputs": [
        {
          "internalType": "uint256",
          "name": "id",
          "type": "uint256"
        }
      ],
      "stateMutability": "nonpayable",
      "type": "function"
    },
    {
      "inputs": [
        {
          "components": [
            {
              "internalType": "address",
              "name": "trader",
              "type": "address"
            },
            {
              "internalType": "contract IAMM",
              "name": "amm",
              "type": "address"
            },
            {
              "internalType": "enum Side",
              "name": "side",
              "type": "uint8"
            },
            {
              "internalType": "uint256",
              "name": "trigger",
              "type": "uint256"
            },
            {
              "internalType": "uint256",
              "name": "quoteAmount",
              "type": "uint256"
            },
            {
              "internalType": "uint256",
              "name": "leverage",
              "type": "uint256"
            },
            {
              "internalType": "bool",
              "name": "reduceOnly",
              "type": "bool"
            }
          ],
          "internalType": "struct LimitOrder[]",
          "name": "_orders",
          "type": "tuple[]"
        }
      ],
      "name": "createLimitOrderBatch",
      "outputs": [
        {
          "internalType": "uint256[]",
          "name": "ids",
          "type": "uint256[]"
        }
      ],
      "stateMutability": "nonpayable",
      "type": "function"
    },
    {
      "inputs": [
        {
          "components": [
            {
              "internalType": "address",
              "name": "trader",
              "type": "address"
            },
            {
              "internalType": "contract IAMM",
              "name": "amm",
              "type": "address"
            },
            {
              "internalType": "uint256",
              "name": "trigger",
              "type": "uint256"
            },
            {
              "internalType": "uint256",
              "name": "size",
              "type": "uint256"
            },
            {
              "internalType": "uint256",
              "name": "quoteLimit",
              "type": "uint256"
            },
            {
              "internalType": "bool",
              "name": "takeProfit",
              "type": "bool"
            }
          ],
          "internalType": "struct TriggerOrder",
          "name": "order",
          "type": "tuple"
        }
      ],
      "name": "createTriggerOrder",
      "outputs": [
        {
          "internalType": "bytes32",
          "name": "id",
          "type": "bytes32"
        }
      ],
      "stateMutability": "nonpayable",
      "type": "function"
    },
    {
      "inputs": [
        {
          "internalType": "uint256",
          "name": "id",
          "type": "uint256"
        }
      ],
      "name": "deleteLimitOrder",
      "outputs": [],
      "stateMutability": "nonpayable",
      "type": "function"
    },
    {
      "inputs": [
        {
          "internalType": "uint256[]",
          "name": "ids",
          "type": "uint256[]"
        }
      ],
      "name": "deleteLimitOrderBatch",
      "outputs": [],
      "stateMutability": "nonpayable",
      "type": "function"
    },
    {
      "inputs": [
        {
          "internalType": "contract IAMM",
          "name": "amm",
          "type": "address"
        },
        {
          "internalType": "bytes32",
          "name": "id",
          "type": "bytes32"
        }
      ],
      "name": "deleteTriggerOrder",
      "outputs": [],
      "stateMutability": "nonpayable",
      "type": "function"
    },
    {
      "inputs": [
        {
          "internalType": "contract IAMM",
          "name": "amm",
          "type": "address"
        }
      ],
      "name": "getAMMData",
      "outputs": [
        {
          "components": [
            {
              "internalType": "int256",
              "name": "premiumFraction",
              "type": "int256"
            },
            {
              "internalType": "int256",
              "name": "premiumFractionPerShare",
              "type": "int256"
            },
            {
              "internalType": "int256",
              "name": "netPositionOffsetPerShare",
              "type": "int256"
            },
            {
              "internalType": "uint256",
              "name": "feeGrowth",
              "type": "uint256"
            }
          ],
          "internalType": "struct AMMData",
          "name": "",
          "type": "tuple"
        }
      ],
      "stateMutability": "view",
      "type": "function"
    },
    {
      "inputs": [
        {
          "internalType": "contract IAMM",
          "name": "amm",
          "type": "address"
        }
      ],
      "name": "getCumulativePremiumFraction",
      "outputs": [
        {
          "internalType": "int256",
          "name": "",
          "type": "int256"
        }
      ],
      "stateMutability": "view",
      "type": "function"
    },
    {
      "inputs": [
        {
          "internalType": "contract IAMM",
          "name": "amm",
          "type": "address"
        }
      ],
      "name": "getCumulativePremiumFractionPerShare",
      "outputs": [
        {
          "internalType": "int256",
          "name": "",
          "type": "int256"
        }
      ],
      "stateMutability": "view",
      "type": "function"
    },
    {
      "inputs": [
        {
          "internalType": "contract IAMM",
          "name": "amm",
          "type": "address"
        }
      ],
      "name": "getFeeGrowth",
      "outputs": [
        {
          "internalType": "uint256",
          "name": "",
          "type": "uint256"
        }
      ],
      "stateMutability": "view",
      "type": "function"
    },
    {
      "inputs": [
        {
          "internalType": "uint256",
          "name": "id",
          "type": "uint256"
        }
      ],
      "name": "getLimitOrder",
      "outputs": [
        {
          "components": [
            {
              "internalType": "address",
              "name": "trader",
              "type": "address"
            },
            {
              "internalType": "contract IAMM",
              "name": "amm",
              "type": "address"
            },
            {
              "internalType": "enum Side",
              "name": "side",
              "type": "uint8"
            },
            {
              "internalType": "uint256",
              "name": "trigger",
              "type": "uint256"
            },
            {
              "internalType": "uint256",
              "name": "quoteAmount",
              "type": "uint256"
            },
            {
              "internalType": "uint256",
              "name": "leverage",
              "type": "uint256"
            },
            {
              "internalType": "bool",
              "name": "reduceOnly",
              "type": "bool"
            }
          ],
          "internalType": "struct LimitOrder",
          "name": "",
          "type": "tuple"
        }
      ],
      "stateMutability": "view",
      "type": "function"
    },
    {
      "inputs": [
        {
          "internalType": "contract IAMM",
          "name": "amm",
          "type": "address"
        }
      ],
      "name": "getOpenInterestNotional",
      "outputs": [
        {
          "internalType": "uint256",
          "name": "",
          "type": "uint256"
        }
      ],
      "stateMutability": "view",
      "type": "function"
    },
    {
      "inputs": [
        {
          "internalType": "contract IAMM",
          "name": "amm",
          "type": "address"
        },
        {
          "internalType": "address",
          "name": "trader",
          "type": "address"
        }
      ],
      "name": "getPosition",
      "outputs": [
        {
          "components": [
            {
              "internalType": "int256",
              "name": "size",
              "type": "int256"
            },
            {
              "internalType": "uint256",
              "name": "margin",
              "type": "uint256"
            },
            {
              "internalType": "uint256",
              "name": "openNotional",
              "type": "uint256"
            },
            {
              "internalType": "int256",
              "name": "lastPremiumFraction",
              "type": "int256"
            },
            {
              "internalType": "uint256",
              "name": "blockNumber",
              "type": "uint256"
            }
          ],
          "internalType": "struct Position",
          "name": "position",
          "type": "tuple"
        }
      ],
      "stateMutability": "view",
      "type": "function"
    },
    {
      "inputs": [
        {
          "internalType": "contract IAMM",
          "name": "amm",
          "type": "address"
        },
        {
          "internalType": "address",
          "name": "trader",
          "type": "address"
        }
      ],
      "name": "getPositionNotionalUpnl",
      "outputs": [
        {
          "internalType": "uint256",
          "name": "positionNotional",
          "type": "uint256"
        },
        {
          "internalType": "int256",
          "name": "upnl",
          "type": "int256"
        }
      ],
      "stateMutability": "view",
      "type": "function"
    },
    {
      "inputs": [
        {
          "internalType": "contract IAMM",
          "name": "amm",
          "type": "address"
        }
      ],
      "name": "getTotalPositionSize",
      "outputs": [
        {
          "components": [
            {
              "internalType": "int256",
              "name": "netPositionSize",
              "type": "int256"
            },
            {
              "internalType": "int256",
              "name": "netPositionOffsetPerShare",
              "type": "int256"
            },
            {
              "internalType": "uint256",
              "name": "positionSizeLong",
              "type": "uint256"
            },
            {
              "internalType": "uint256",
              "name": "positionSizeShort",
              "type": "uint256"
            }
          ],
          "internalType": "struct TotalPositionSize",
          "name": "",
          "type": "tuple"
        }
      ],
      "stateMutability": "view",
      "type": "function"
    },
    {
      "inputs": [
        {
          "internalType": "contract IAMM",
          "name": "amm",
          "type": "address"
        },
        {
          "internalType": "bytes32",
          "name": "id",
          "type": "bytes32"
        }
      ],
      "name": "getTriggerOrder",
      "outputs": [
        {
          "components": [
            {
              "internalType": "address",
              "name": "trader",
              "type": "address"
            },
            {
              "internalType": "contract IAMM",
              "name": "amm",
              "type": "address"
            },
            {
              "internalType": "uint256",
              "name": "trigger",
              "type": "uint256"
            },
            {
              "internalType": "uint256",
              "name": "size",
              "type": "uint256"
            },
            {
              "internalType": "uint256",
              "name": "quoteLimit",
              "type": "uint256"
            },
            {
              "internalType": "bool",
              "name": "takeProfit",
              "type": "bool"
            }
          ],
          "internalType": "struct TriggerOrder",
          "name": "",
          "type": "tuple"
        }
      ],
      "stateMutability": "view",
      "type": "function"
    },
    {
      "inputs": [
        {
          "internalType": "contract IAMM",
          "name": "amm",
          "type": "address"
        }
      ],
      "name": "getValidAMM",
      "outputs": [
        {
          "internalType": "bool",
          "name": "",
          "type": "bool"
        }
      ],
      "stateMutability": "view",
      "type": "function"
    },
    {
      "inputs": [
        {
          "internalType": "address",
          "name": "_owner",
          "type": "address"
        }
      ],
      "name": "initialize",
      "outputs": [],
      "stateMutability": "nonpayable",
      "type": "function"
    },
    {
      "inputs": [],
      "name": "isActive",
      "outputs": [
        {
          "internalType": "bool",
          "name": "",
          "type": "bool"
        }
      ],
      "stateMutability": "view",
      "type": "function"
    },
    {
      "inputs": [
        {
          "internalType": "contract IAMM",
          "name": "amm",
          "type": "address"
        },
        {
          "internalType": "address",
          "name": "trader",
          "type": "address"
        }
      ],
      "name": "isLiquidatable",
      "outputs": [
        {
          "internalType": "bool",
          "name": "liquidatable",
          "type": "bool"
        }
      ],
      "stateMutability": "view",
      "type": "function"
    },
    {
      "inputs": [
        {
          "internalType": "contract IAMM",
          "name": "amm",
          "type": "address"
        },
        {
          "internalType": "address",
          "name": "trader",
          "type": "address"
        },
        {
          "internalType": "uint256",
          "name": "margin",
          "type": "uint256"
        }
      ],
      "name": "liquidate",
      "outputs": [],
      "stateMutability": "nonpayable",
      "type": "function"
    },
    {
      "inputs": [
        {
          "internalType": "contract IAMM",
          "name": "amm",
          "type": "address"
        },
        {
          "internalType": "address",
          "name": "maker",
          "type": "address"
        },
        {
          "internalType": "uint256",
          "name": "margin",
          "type": "uint256"
        }
      ],
      "name": "liquidateMaker",
      "outputs": [],
      "stateMutability": "nonpayable",
      "type": "function"
    },
    {
      "inputs": [
        {
          "internalType": "contract IAMM",
          "name": "amm",
          "type": "address"
        },
        {
          "internalType": "enum Side",
          "name": "side",
          "type": "uint8"
        },
        {
          "internalType": "uint256",
          "name": "quote",
          "type": "uint256"
        },
        {
          "internalType": "uint256",
          "name": "leverage",
          "type": "uint256"
        },
        {
          "internalType": "uint256",
          "name": "baseLimit",
          "type": "uint256"
        }
      ],
      "name": "openPosition",
      "outputs": [],
      "stateMutability": "nonpayable",
      "type": "function"
    },
    {
      "inputs": [],
      "name": "owner",
      "outputs": [
        {
          "internalType": "address",
          "name": "result",
          "type": "address"
        }
      ],
      "stateMutability": "view",
      "type": "function"
    },
    {
      "inputs": [
        {
          "internalType": "address",
          "name": "pendingOwner",
          "type": "address"
        }
      ],
      "name": "ownershipHandoverExpiresAt",
      "outputs": [
        {
          "internalType": "uint256",
          "name": "result",
          "type": "uint256"
        }
      ],
      "stateMutability": "view",
      "type": "function"
    },
    {
      "inputs": [],
      "name": "ownershipHandoverValidFor",
      "outputs": [
        {
          "internalType": "uint64",
          "name": "",
          "type": "uint64"
        }
      ],
      "stateMutability": "view",
      "type": "function"
    },
    {
      "inputs": [
        {
          "internalType": "contract IAMM",
          "name": "amm",
          "type": "address"
        },
        {
          "internalType": "uint256",
          "name": "amount",
          "type": "uint256"
        }
      ],
      "name": "removeLiquidity",
      "outputs": [],
      "stateMutability": "nonpayable",
      "type": "function"
    },
    {
      "inputs": [
        {
          "internalType": "contract IAMM",
          "name": "amm",
          "type": "address"
        },
        {
          "internalType": "uint256",
          "name": "margin",
          "type": "uint256"
        }
      ],
      "name": "removeMargin",
      "outputs": [],
      "stateMutability": "nonpayable",
      "type": "function"
    },
    {
      "inputs": [],
      "name": "renounceOwnership",
      "outputs": [],
      "stateMutability": "payable",
      "type": "function"
    },
    {
      "inputs": [],
      "name": "requestOwnershipHandover",
      "outputs": [],
      "stateMutability": "payable",
      "type": "function"
    },
    {
      "inputs": [
        {
          "internalType": "bool",
          "name": "_active",
          "type": "bool"
        }
      ],
      "name": "setActive",
      "outputs": [],
      "stateMutability": "nonpayable",
      "type": "function"
    },
    {
      "inputs": [
        {
          "internalType": "uint256",
          "name": "_divergenceCap",
          "type": "uint256"
        }
      ],
      "name": "setDivergenceCap",
      "outputs": [],
      "stateMutability": "nonpayable",
      "type": "function"
    },
    {
      "inputs": [
        {
          "internalType": "contract IAMM",
          "name": "amm",
          "type": "address"
        },
        {
          "internalType": "bool",
          "name": "valid",
          "type": "bool"
        }
      ],
      "name": "setValidAMM",
      "outputs": [],
      "stateMutability": "nonpayable",
      "type": "function"
    },
    {
      "inputs": [
        {
          "internalType": "contract IAMM",
          "name": "amm",
          "type": "address"
        }
      ],
      "name": "settleFunding",
      "outputs": [],
      "stateMutability": "nonpayable",
      "type": "function"
    },
    {
      "inputs": [
        {
          "internalType": "address",
          "name": "newOwner",
          "type": "address"
        }
      ],
      "name": "transferOwnership",
      "outputs": [],
      "stateMutability": "payable",
      "type": "function"
    },
    {
      "inputs": [
        {
          "internalType": "uint256",
          "name": "id",
          "type": "uint256"
        },
        {
          "components": [
            {
              "internalType": "address",
              "name": "trader",
              "type": "address"
            },
            {
              "internalType": "contract IAMM",
              "name": "amm",
              "type": "address"
            },
            {
              "internalType": "enum Side",
              "name": "side",
              "type": "uint8"
            },
            {
              "internalType": "uint256",
              "name": "trigger",
              "type": "uint256"
            },
            {
              "internalType": "uint256",
              "name": "quoteAmount",
              "type": "uint256"
            },
            {
              "internalType": "uint256",
              "name": "leverage",
              "type": "uint256"
            },
            {
              "internalType": "bool",
              "name": "reduceOnly",
              "type": "bool"
            }
          ],
          "internalType": "struct LimitOrder",
          "name": "order",
          "type": "tuple"
        }
      ],
      "name": "updateLimitOrder",
      "outputs": [],
      "stateMutability": "nonpayable",
      "type": "function"
    },
    {
      "inputs": [
        {
          "internalType": "uint256[]",
          "name": "ids",
          "type": "uint256[]"
        },
        {
          "components": [
            {
              "internalType": "address",
              "name": "trader",
              "type": "address"
            },
            {
              "internalType": "contract IAMM",
              "name": "amm",
              "type": "address"
            },
            {
              "internalType": "enum Side",
              "name": "side",
              "type": "uint8"
            },
            {
              "internalType": "uint256",
              "name": "trigger",
              "type": "uint256"
            },
            {
              "internalType": "uint256",
              "name": "quoteAmount",
              "type": "uint256"
            },
            {
              "internalType": "uint256",
              "name": "leverage",
              "type": "uint256"
            },
            {
              "internalType": "bool",
              "name": "reduceOnly",
              "type": "bool"
            }
          ],
          "internalType": "struct LimitOrder[]",
          "name": "_ordes",
          "type": "tuple[]"
        }
      ],
      "name": "updateLimitOrderBatch",
      "outputs": [],
      "stateMutability": "nonpayable",
      "type": "function"
    },
    {
      "inputs": [
        {
          "internalType": "bytes32",
          "name": "id",
          "type": "bytes32"
        },
        {
          "internalType": "contract IAMM",
          "name": "amm",
          "type": "address"
        },
        {
          "components": [
            {
              "internalType": "address",
              "name": "trader",
              "type": "address"
            },
            {
              "internalType": "contract IAMM",
              "name": "amm",
              "type": "address"
            },
            {
              "internalType": "uint256",
              "name": "trigger",
              "type": "uint256"
            },
            {
              "internalType": "uint256",
              "name": "size",
              "type": "uint256"
            },
            {
              "internalType": "uint256",
              "name": "quoteLimit",
              "type": "uint256"
            },
            {
              "internalType": "bool",
              "name": "takeProfit",
              "type": "bool"
            }
          ],
          "internalType": "struct TriggerOrder",
          "name": "order",
          "type": "tuple"
        }
      ],
      "name": "updateTriggerOrder",
      "outputs": [],
      "stateMutability": "nonpayable",
      "type": "function"
    }
  ],
  "bytecode": {
    "object": "0x6101206040523480156200001257600080fd5b506040516200555e3803806200555e83398101604081905262000035916200014e565b6001600160a01b038086166080528481166101005283811660a05282811660c052811660e0526200006562000070565b5050505050620001be565b603c54610100900460ff1615620000dd5760405162461bcd60e51b815260206004820152602760248201527f496e697469616c697a61626c653a20636f6e747261637420697320696e697469604482015266616c697a696e6760c81b606482015260840160405180910390fd5b603c5460ff908116146200012f57603c805460ff191660ff9081179091556040519081527f7f26b83ff96e1f2b6a682f133852f6798a09c465da95921460cefb38474024989060200160405180910390a15b565b80516001600160a01b03811681146200014957600080fd5b919050565b600080600080600060a086880312156200016757600080fd5b620001728662000131565b9450620001826020870162000131565b9350620001926040870162000131565b9250620001a26060870162000131565b9150620001b26080870162000131565b90509295509295909350565b60805160a05160c05160e0516101005161530e620002506000396000611ea6015260008181610ab0015281816110b60152611245015260008181610f070152818161172b0152611a540152600081816111c3015261216e015260008181610c1601528181610e7d0152818161168c01528181611a8d01528181611d4501528181611e8401526121b2015261530e6000f3fe6080604052600436106102675760003560e01c80637eb0240611610144578063cbb50e61116100b6578063e980e16e1161007a578063e980e16e146108f5578063f04e283e14610948578063f2fde38b1461095b578063f394ae491461096e578063f8b6e4491461098e578063fee81cf4146109ae57600080fd5b8063cbb50e6114610841578063cf70cb6914610861578063d3123a8014610881578063d7533f02146108b7578063e859f372146108d557600080fd5b8063acec338a11610108578063acec338a14610729578063b33dc19014610749578063b346679b146107ab578063b959d695146107e1578063c4d66de814610801578063c88d348a1461082157600080fd5b80637eb02406146106575780638da5cb5b1461067757806398712fe4146106a35780639dda4e4f146106d0578063a201ccf61461070957600080fd5b8063429e9237116101dd57806354d1f13d116101a157806354d1f13d146105b157806368d85297146105b95780636b17ad03146105d95780636ea41e40146105f9578063715018a61461062f5780637aefce971461063757600080fd5b8063429e9237146104e15780634a6ebce7146105175780634fa9c4db14610544578063517237a914610564578063530610261461058457600080fd5b806322f3e2d41161022f57806322f3e2d414610336578063256929621461036057806326c01303146103685780632a120de4146103885780633966a28b146103a857806339e50d86146103c857600080fd5b80630e86a08d1461026c57806313dee2d1146102a657806318aec626146102c85780631ece366a146102e8578063207b5b6f14610316575b600080fd5b34801561027857600080fd5b5061028c6102873660046143a0565b6109e1565b604080519283526020830191909152015b60405180910390f35b3480156102b257600080fd5b506102c66102c136600461441e565b610a58565b005b3480156102d457600080fd5b506102c66102e33660046144d0565b610add565b3480156102f457600080fd5b50610308610303366004614510565b610bf6565b60405190815260200161029d565b34801561032257600080fd5b506102c6610331366004614559565b610d54565b34801561034257600080fd5b50603c5462010000900460ff165b604051901515815260200161029d565b6102c6610d87565b34801561037457600080fd5b506102c6610383366004614587565b610dd7565b34801561039457600080fd5b506102c66103a33660046146c3565b610f35565b3480156103b457600080fd5b506103506103c33660046143a0565b610feb565b3480156103d457600080fd5b5061048a6103e33660046146e8565b6040805160c081018252600080825260208201819052918101829052606081018290526080810182905260a0810191909152506001600160a01b039182166000908152603e6020908152604080832093835292815290829020825160c08101845281548516815260018201549094169184019190915260028101549183019190915260038101546060830152600481015460808301526005015460ff16151560a082015290565b60405161029d919081516001600160a01b0390811682526020808401519091169082015260408083015190820152606080830151908201526080808301519082015260a09182015115159181019190915260c00190565b3480156104ed57600080fd5b506103086104fc366004614714565b6001600160a01b031660009081526007602052604090205490565b34801561052357600080fd5b50610537610532366004614731565b61105e565b60405161029d91906147ae565b34801561055057600080fd5b506102c661055f3660046147c1565b6110f2565b34801561057057600080fd5b506102c661057f36600461481a565b6111f3565b34801561059057600080fd5b506105a461059f3660046148b0565b61126f565b60405161029d9190614957565b6102c661131b565b3480156105c557600080fd5b506103086105d4366004614965565b611357565b3480156105e557600080fd5b506102c66105f4366004614714565b611454565b34801561060557600080fd5b50610308610614366004614714565b6001600160a01b031660009081526005602052604090205490565b6102c66115db565b34801561064357600080fd5b506102c6610652366004614587565b6115ef565b34801561066357600080fd5b50610308610672366004614981565b61175b565b34801561068357600080fd5b50638b78c6d819546040516001600160a01b03909116815260200161029d565b3480156106af57600080fd5b506106c36106be366004614714565b61181e565b60405161029d9190614993565b3480156106dc57600080fd5b506103506106eb366004614714565b6001600160a01b03166000908152603d602052604090205460ff1690565b34801561071557600080fd5b506102c66107243660046146e8565b6118a3565b34801561073557600080fd5b506102c66107443660046149be565b611b11565b34801561075557600080fd5b506107696107643660046143a0565b611b92565b60405161029d9190600060a082019050825182526020830151602083015260408301516040830152606083015160608301526080830151608083015292915050565b3480156107b757600080fd5b506103086107c6366004614714565b6001600160a01b031660009081526009602052604090205490565b3480156107ed57600080fd5b506102c66107fc3660046146e8565b611c27565b34801561080d57600080fd5b506102c661081c366004614714565b611db2565b34801561082d57600080fd5b506102c661083c3660046146e8565b611f1f565b34801561084d57600080fd5b506102c661085c3660046149db565b6120ed565b34801561086d57600080fd5b506102c661087c3660046146e8565b612194565b34801561088d57600080fd5b5061030861089c366004614714565b6001600160a01b031660009081526006602052604090205490565b3480156108c357600080fd5b506040516202a300815260200161029d565b3480156108e157600080fd5b506102c66108f03660046148b0565b612257565b34801561090157600080fd5b50610915610910366004614714565b6122b7565b60405161029d91908151815260208083015190820152604080830151908201526060918201519181019190915260800190565b6102c6610956366004614714565b61232f565b6102c6610969366004614714565b61236c565b34801561097a57600080fd5b506102c66109893660046146e8565b612393565b34801561099a57600080fd5b506102c66109a93660046148b0565b612468565b3480156109ba57600080fd5b506103086109c9366004614714565b63389a75e1600c908152600091909152602090205490565b6001600160a01b038083166000908152602081815260408083209385168352928152828220835160a08101855281548152600182015492810192909252600281015493820193909352600383015460608201526004909201546080830152908190610a4d908590612475565b909590945092505050565b610a606124bf565b610ad63385858585604051602401610a7c959493929190614acd565b60408051601f198184030181529190526020810180516001600160e01b031663e98143ad60e01b1790526001600160a01b037f000000000000000000000000000000000000000000000000000000000000000016906124e8565b5050505050565b610af5610af06040830160208401614714565b612514565b6001600160a01b038083166000908152603e6020908152604080832087845290915290205416338114610b3b576040516342f062b760e01b815260040160405180910390fd5b33610b496020840184614714565b6001600160a01b031614610b70576040516342f062b760e01b815260040160405180910390fd5b81603e6000610b856040840160208501614714565b6001600160a01b03168152602080820192909252604090810160009081208882529092529020610bb58282614b50565b905050837fe657aa4938f23a1e792a700bd221e3e0dda2760d6572e0c57ac1d90a33a6d9f283604051610be89190614c2e565b60405180910390a250505050565b6000610c006124bf565b610c0985612514565b610c3e6001600160a01b037f00000000000000000000000000000000000000000000000000000000000000001633308761254d565b604080516080810182526001600160a01b0387166000818152600560209081528482205484528282526006815284822054818501528282526001808252858320015484860152828252600990528381205460608401529251631a09603f60e21b8152909163682580fc91610cbd9133918a918a918a9190600401614c3c565b60408051808303816000875af1158015610cdb573d6000803e3d6000fd5b505050506040513d601f19601f82011682018060405250810190610cff9190614c90565b604080518381526020810183905292945090925033916001600160a01b038916917f32923dfeaa77af290abe15bfb407a16585bee3843a05dc1b82ad3dca3a866aad910160405180910390a350949350505050565b610d5c6125a1565b6001600160a01b03919091166000908152603d60205260409020805460ff1916911515919091179055565b60006202a30067ffffffffffffffff164201905063389a75e1600c5233600052806020600c2055337fdbf36a107da19e49527a7176a1babf963b4b0ff8cde35ee35d6cd8f1f9ac7e1d600080a250565b610ddf6124bf565b610de883612514565b6001600160a01b038084166000908152602081815260408083209386168352928152828220835160a08101855281548152600182015492810192909252600281015493820193909352600383015460608201526004909201546080830152610e5085836125bc565b905080610e7057604051633da1f7d160e11b815260040160405180910390fd5b610ea56001600160a01b037f00000000000000000000000000000000000000000000000000000000000000001633308661254d565b6040516001600160a01b0380871660248301528516604482015233606482015260848101849052610f2d9060a40160408051601f198184030181529190526020810180516001600160e01b03166315567f0d60e31b1790526001600160a01b037f000000000000000000000000000000000000000000000000000000000000000016906124e8565b505050505050565b610f3d6124bf565b604080516001808252818301909252600091816020015b610f5c6142f0565b815260200190600190039081610f5457505060408051600180825281830190925291925060009190602080830190803683370190505090508282600081518110610fa857610fa8614cb4565b60200260200101819052508381600081518110610fc757610fc7614cb4565b602002602001018181525050610ad6338284604051602401610a7c93929190614d04565b6001600160a01b038083166000908152602081815260408083209385168352928152828220835160a081018552815481526001820154928101929092526002810154938201939093526003830154606082015260049092015460808301529061105484826125bc565b9150505b92915050565b60606110686124bf565b60006110dc33858560405160240161108293929190614d3a565b60408051601f198184030181529190526020810180516001600160e01b0316638b69f89760e01b1790526001600160a01b037f000000000000000000000000000000000000000000000000000000000000000016906124e8565b9050808060200190518101906110549190614d68565b6110fa6124bf565b61110383612514565b600061110f8433612734565b905060ff81901c600003808201188084111561113e57604051631eab837160e11b815260040160405180910390fd5b8360000361114d575050505050565b600080831361115d576000611160565b60015b905061116c868261277b565b6111e933878388886000888c1460405160240161118f9796959493929190614dee565b60408051601f198184030181529190526020810180516001600160e01b0316637b9db48760e11b1790526001600160a01b037f000000000000000000000000000000000000000000000000000000000000000016906124e8565b505050505b505050565b6111fb6124bf565b61126b3382604051602401611211929190614e40565b60408051601f198184030181529190526020810180516001600160e01b0316637d5eb41f60e01b1790526001600160a01b037f000000000000000000000000000000000000000000000000000000000000000016906124e8565b5050565b6112776142f0565b600082815260046020908152604091829020825160e08101845281546001600160a01b039081168252600180840154918216948301949094529093919291840191600160a01b90910460ff16908111156112d3576112d36148c9565b60018111156112e4576112e46148c9565b815260028201546020820152600382015460408201526004820154606082015260059091015460ff16151560809091015292915050565b63389a75e1600c523360005260006020600c2055337ffa7b8eab7da67f412cc9575ed43464468f9bfbae89d1675917346ca6d8fe3c92600080a2565b600061136c610af06040840160208501614714565b3361137a6020840184614714565b6001600160a01b0316146113a1576040516342f062b760e01b815260040160405180910390fd5b81436040516020016113b4929190614e64565b60405160208183030381529060405280519060200120905081603e60008460200160208101906113e49190614714565b6001600160a01b031681526020808201929092526040908101600090812085825290925290206114148282614b50565b905050807fe657aa4938f23a1e792a700bd221e3e0dda2760d6572e0c57ac1d90a33a6d9f2836040516114479190614c2e565b60405180910390a2919050565b61145c6124bf565b61146581612514565b6000806000836001600160a01b031663ed83d79c6040518163ffffffff1660e01b81526004016060604051808303816000875af11580156114aa573d6000803e3d6000fd5b505050506040513d601f19601f820116820180604052508101906114ce9190614e7f565b6001600160a01b0387166000818152600160208181526040808420815160808101835281548152938101548484015260028101548483015260030154606084015293835260058152838320546006909152929091205494975092955090935090916115398683614ec3565b602084015190925061154b90876128ed565b611556906001614ec3565b6115609082614ec3565b6001600160a01b03881660008181526005602090815260408083208790556006825291829020849055815189815290810188905290810185905260608101839052919250907f1c02bced5ca0dc6cf5083d0cafb8183dce5091eaa32c83b0065021a491ae5e539060800160405180910390a250505050505050565b6115e36125a1565b6115ed600061295c565b565b6115f76124bf565b61160083612514565b604051631bde66e760e01b81526001600160a01b038381166004830152600091829182918291881690631bde66e7906024016080604051808303816000875af1158015611651573d6000803e3d6000fd5b505050506040513d601f19601f820116820180604052508101906116759190614eeb565b929650909450925090506116b46001600160a01b037f00000000000000000000000000000000000000000000000000000000000000001633308861254d565b6040516001600160a01b0388166024820152336044820152606481018590526084810186905260a4810184905260c4810182905260e48101839052611751906101040160408051601f198184030181529190526020810180516001600160e01b031663d0dea43d60e01b1790526001600160a01b037f000000000000000000000000000000000000000000000000000000000000000016906124e8565b5050505050505050565b60006117656124bf565b604080516001808252818301909252600091816020015b6117846142f0565b81526020019060019003908161177c5790505090506117a836849003840184614f21565b816000815181106117bb576117bb614cb4565b602002602001018190525060006117de3383604051602401611082929190614f3d565b90506000818060200190518101906117f69190614d68565b90508060008151811061180b5761180b614cb4565b602002602001015193505050505b919050565b6118496040518060800160405280600081526020016000815260200160008152602001600081525090565b50604080516080810182526001600160a01b03909216600081815260056020908152838220548552828252600681528382205481860152828252600180825284832001548585015291815260099091522054606082015290565b6118ab6124bf565b6118b482612514565b604080516080810182526001600160a01b038416600081815260056020908152848220548452828252600681528482205481850152828252600180825285832001548486015282825260099052838120546060840152925163ab7ab90360e01b8152839283929163ab7ab903916119319133918991600401614f61565b6060604051808303816000875af1158015611950573d6000803e3d6000fd5b505050506040513d601f19601f820116820180604052508101906119749190614e7f565b9250925092506000856001600160a01b0316630902f1ac6040518163ffffffff1660e01b81526004016040805180830381865afa1580156119b9573d6000803e3d6000fd5b505050506040513d601f19601f820116820180604052508101906119dd9190614c90565b91505083158015906119ee57508015155b15611a80576040516001600160a01b03871660248201523360448201526064810184905260848101859052611a7a9060a40160408051601f198184030181529190526020810180516001600160e01b031663dab497ff60e01b1790526001600160a01b037f000000000000000000000000000000000000000000000000000000000000000016906124e8565b50611ab4565b611ab46001600160a01b037f000000000000000000000000000000000000000000000000000000000000000016338561299a565b60408051868152602081018690529081018490526060810183905233906001600160a01b038816907fef5ab242a679e37f2ff51fd2bc2aed154cad62c0906ef89aa3228d72f968105f9060800160405180910390a3505050505050565b611b196125a1565b603c805482158015620100000262ff00001990921691909117909155611b65576040517fed1cd0670ee0c0017f550451a038818c696d0b6a9d6ce5b369e44275573cf9b090600090a150565b6040517ff0c683001104e62ea6db2065e069e1df46185d033db8cf4494df0a516cf537cb90600090a15b50565b611bc46040518060a0016040528060008152602001600081526020016000815260200160008152602001600081525090565b506001600160a01b03918216600090815260208181526040808320939094168252918252829020825160a0810184528154815260018201549281019290925260028101549282019290925260038201546060820152600490910154608082015290565b611c2f6124bf565b611c3882612514565b6001600160a01b0382166000908152602081815260408083203384528252808320815160a081018352815481526001820154938101939093526002810154918301919091526003810154606083015260040154608082015290611cae8483611ca986670de0b6b3a763ffff196129e0565b612a2d565b90508060400151600014611cd557604051632c7c1d6360e11b815260040160405180910390fd5b6060808201516020840152815190830152611cf08483612af5565b6001600160a01b038085166000908152602081815260408083203380855290835292819020865181559186015160018301558501516002820155606085015160038201556080850151600490910155611d6c917f000000000000000000000000000000000000000000000000000000000000000016908561299a565b60405183815233906001600160a01b038616907fb0fa03f93c852a6feaaeb34ccf4cf865cc223c4cc9d25dce28a9131fde2710719060200160405180910390a350505050565b603c54610100900460ff1615808015611dd25750603c54600160ff909116105b80611dec5750303b158015611dec5750603c5460ff166001145b611e545760405162461bcd60e51b815260206004820152602e60248201527f496e697469616c697a61626c653a20636f6e747261637420697320616c72656160448201526d191e481a5b9a5d1a585b1a5e995960921b60648201526084015b60405180910390fd5b603c805460ff191660011790558015611e7757603c805461ff0019166101001790555b611ecd6001600160a01b037f0000000000000000000000000000000000000000000000000000000000000000167f0000000000000000000000000000000000000000000000000000000000000000600019612bfc565b611ed682612c38565b801561126b57603c805461ff0019169055604051600181527f7f26b83ff96e1f2b6a682f133852f6798a09c465da95921460cefb38474024989060200160405180910390a15050565b611f276124bf565b6001600160a01b038083166000908152603e602090815260408083208584528252808320815160c0810183528154861680825260018301549096169381019390935260028101549183019190915260038101546060830152600481015460808301526005015460ff16151560a082015291611fa3908590612734565b9050600060ff82901c8103808301189050611fc18360200151612514565b611fea836020015160008413611fd8576001611fdb565b60005b85604001518660a00151612c74565b6001600160a01b0385166000908152603e60209081526040808320878452909152812080546001600160a01b03199081168255600182018054909116905560028101829055600381018290556004810191909155600501805460ff19169055606083015181101561205d57606083018190525b600080831361206d576000612070565b60015b905061207c868261277b565b83516020850151606086015160808701516040516120ac9461118f9490939092879233908a841490602401614dee565b5060405133906001600160a01b0388169087907f9242309241259c8f8c0196f19912b72928f6d95256e1939aee16099b71e9884f90600090a4505050505050565b6120f56124bf565b6120ff858561277b565b61210885612514565b61211c85846121178186612d3f565b612d54565b610f2d33868686868660405160240161213a96959493929190614fa6565b60408051601f198184030181529190526020810180516001600160e01b03166310faff9560e31b1790526001600160a01b037f000000000000000000000000000000000000000000000000000000000000000016906124e8565b61219c6124bf565b6121a582612514565b6121da6001600160a01b037f00000000000000000000000000000000000000000000000000000000000000001633308461254d565b6001600160a01b0382166000908152602081815260408083203384529091528120600101805483929061220e908490614fea565b909155505060405181815233906001600160a01b038416907f05c2d01f05f37971d15b22586be2f1933a1ae8c0079a056a430b4391550ffb2d9060200160405180910390a35050565b61225f6124bf565b60408051600180825281830190925260009160208083019080368337019050509050818160008151811061229557612295614cb4565b6020026020010181815250506111ee3382604051602401611211929190614e40565b6122e26040518060800160405280600081526020016000815260200160008152602001600081525090565b506001600160a01b03166000908152600160208181526040928390208351608081018552815481529281015491830191909152600281015492820192909252600390910154606082015290565b6123376125a1565b63389a75e1600c52806000526020600c20805442111561235f57636f5e88186000526004601cfd5b60009055611b8f8161295c565b6123746125a1565b8060601b61238a57637448fbae6000526004601cfd5b611b8f8161295c565b6001600160a01b038083166000908152603e60209081526040808320858452909152902054163381146123d9576040516342f062b760e01b815260040160405180910390fd5b6001600160a01b0383166000818152603e6020908152604080832086845290915280822080546001600160a01b031990811682556001820180549091169055600281018390556003810183905560048101839055600501805460ff191690555190919084907f9242309241259c8f8c0196f19912b72928f6d95256e1939aee16099b71e9884f908490a4505050565b6124706125a1565b604055565b600080826000015160000361248f575060009050806124b8565b61249d848460000151612de9565b91506124b582846040015160008660000151126131d2565b90505b9250929050565b603c5462010000900460ff166115ed57604051637dc579d960e11b815260040160405180910390fd5b606061250d83836040518060600160405280602781526020016152b26027913961321a565b9392505050565b6001600160a01b0381166000908152603d602052604090205460ff16611b8f576040516304c1bb0360e11b815260040160405180910390fd5b60405181606052826040528360601b602c526323b872dd60601b600c52602060006064601c6000895af13d15600160005114171661259357637939f4246000526004601cfd5b600060605260405250505050565b638b78c6d8195433146115ed576382b429006000526004601cfd5b805160009081036125cf57506000611058565b6000612650612641856001600160a01b03166346558d1b6040518163ffffffff1660e01b8152600401602060405180830381865afa158015612615573d6000803e3d6000fd5b505050506040513d601f19601f820116820180604052508101906126399190614ffd565b855190613288565b60ff81901c6000039081011890565b9050600080846000015113156126875761266d84604001516132b4565b612676836132b4565b6126809190615016565b90506126aa565b612690826132b4565b61269d85604001516132b4565b6126a79190615016565b90505b60006126b7868684612a2d565b606001519050856001600160a01b0316634f3c15426040518163ffffffff1660e01b8152600401602060405180830381865afa1580156126fb573d6000803e3d6000fd5b505050506040513d601f19601f8201168201806040525081019061271f9190614ffd565b61272982856132cd565b109695505050505050565b6001600160a01b038083166000908152602081815260408083209385168352929052908120549081900361105857604051631d5fdf4760e11b815260040160405180910390fd5b604054600081900361278c57505050565b6000836001600160a01b031663604096326040518163ffffffff1660e01b8152600401602060405180830381865afa1580156127cc573d6000803e3d6000fd5b505050506040513d601f19601f820116820180604052508101906127f09190614ffd565b90506000846001600160a01b03166358c0994a6040518163ffffffff1660e01b8152600401602060405180830381865afa158015612832573d6000803e3d6000fd5b505050506040513d601f19601f820116820180604052508101906128569190614ffd565b905083600181111561286a5761286a6148c9565b81831161287857600061287b565b60015b600181111561288c5761288c6148c9565b03612898575050505050565b60006128ca826128c46128aa856132b4565b6128b3876132b4565b818113818303929091038218021890565b906132cd565b905083811115610f2d5760405163a6dea22360e01b815260040160405180910390fd5b600080831281831280821415821561290b5761290886615036565b95505b811561291d5761291a85615036565b94505b6129386129338787670de0b6b3a76400006132de565b6132b4565b935080156129535761294984615036565b9350505050611058565b50505092915050565b638b78c6d81980546001600160a01b039092169182907f8be0079c531659141344cd1fd0a4f28419497f9722a3daafe3b4186f6b6457e0600080a355565b816014528060345263a9059cbb60601b60005260206000604460106000875af13d1560016000511417166129d6576390b8ec186000526004601cfd5b6000603452505050565b600080821280156129f7576129f483615036565b92505b612a0d6129338585670de0b6b3a76400006132de565b91508015612a2657612a1e82615036565b915050611058565b5092915050565b612a586040518060800160405280600081526020016000815260200160008152602001600081525090565b6001600160a01b0384166000908152600560205260409020548152825115612a9d57825160608401518251612a979291612a9191615016565b906128ed565b60208201525b6000612aac84602001516132b4565b6020830151612abb9085615016565b612ac59190614ec3565b905060008112612adb5760608201819052612aed565b60ff81901c6000038082011860408301525b509392505050565b600080612b028484612475565b915091506000612b1584602001516132b4565b90506000808313612b2f57612b2a8383614ec3565b612b31565b815b90506000866001600160a01b031663bce2020d6040518163ffffffff1660e01b8152600401602060405180830381865afa158015612b73573d6000803e3d6000fd5b505050506040513d601f19601f82011682018060405250810190612b979190614ffd565b905060008087600001511315612bc1576040870151612bba906129339084612d3f565b9050612bd1565b612bce6129338784612d3f565b90505b6000612bdd8285615016565b12156117515760405163845dfc3960e01b815260040160405180910390fd5b816014528060345263095ea7b360601b60005260206000604460106000875af13d1560016000511417166129d657633e3f8f736000526004601cfd5b6001600160a01b0316638b78c6d8198190558060007f8be0079c531659141344cd1fd0a4f28419497f9722a3daafe3b4186f6b6457e08180a350565b6000846001600160a01b031663604096326040518163ffffffff1660e01b8152600401602060405180830381865afa158015612cb4573d6000803e3d6000fd5b505050506040513d601f19601f82011682018060405250810190612cd89190614ffd565b9050600080856001811115612cef57612cef6148c9565b03612d0c5782612d0157838211612d05565b8382105b9050612d20565b82612d1957838210612d1d565b8382115b90505b8015610f2d576040516315f3d48360e01b815260040160405180910390fd5b600061250d8383670de0b6b3a76400006132de565b6000836001600160a01b031663bce2020d6040518163ffffffff1660e01b8152600401602060405180830381865afa158015612d94573d6000803e3d6000fd5b505050506040513d601f19601f82011682018060405250810190612db89190614ffd565b90506000612dc684846132cd565b905081811015610ad6576040516357809b3160e01b815260040160405180910390fd5b6000612df361432f565b60ff83901c6000038084011860608201819052600003612e17576000915050611058565b836001600160a01b031663c24e38596040518163ffffffff1660e01b8152600401606060405180830381865afa158015612e55573d6000803e3d6000fd5b505050506040513d601f19601f82011682018060405250810190612e799190614e7f565b60408401526020830152815260008313612e94576001612e97565b60005b8160c001906001811115612ead57612ead6148c9565b90816001811115612ec057612ec06148c9565b90525060018160c001516001811115612edb57612edb6148c9565b1460e08201526001600160a01b038416600090815260026020526040812060c083015182906001811115612f1157612f116148c9565b6001811115612f2257612f226148c9565b81526020019081526020016000209050612f55612f50836020015184600001516132cd90919063ffffffff16565b61338d565b60020b608083015260e0820151612fe8906001600160a01b0387169063f36bdbc990612f82576000612f85565b60015b85606001516040518363ffffffff1660e01b8152600401612fa7929190615052565b602060405180830381865afa158015612fc4573d6000803e3d6000fd5b505050506040513d601f19601f82011682018060405250810190612f509190614ffd565b60020b60a083015260e08201511561300f5781608001805161300990615069565b60020b90525b6000805b8360e00151613032578360a0015160020b846080015160020b13613044565b8360a0015160020b846080015160020b125b1561313057608084015160e0850151613062918591600190156133ad565b60029190910b60808601529050801561310d576130e46040518060e0016040528086606001518152602001866000015181526020018660200151815260200186604001518152602001896001600160a01b03168152602001866080015160020b81526020018660c0015160018111156130dd576130dd6148c9565b905261356a565b60208801528652606086019190915291506130ff8286614fea565b606085015190955015613130575b8360e0015161312b5783608001805161312590615069565b60020b90525b613013565b6060840151156131c8578360e00151613164578360600151846020018181516131599190614fea565b915081815250613181565b83606001518460200181815161317a919061508c565b9150818152505b50600061319f856020015186604001516132cd90919063ffffffff16565b90506131ba6131b186600001516132b4565b6128b3836132b4565b6131c49087614fea565b9550505b5050505092915050565b6000806131de846132b4565b905060006131eb866132b4565b90508315613204576131fd8183615016565b9250613211565b61320e8282615016565b92505b50509392505050565b6060600080856001600160a01b03168560405161323791906150c3565b600060405180830381855af49150503d8060008114613272576040519150601f19603f3d011682016040523d82523d6000602084013e613277565b606091505b509150915061320e86838387613816565b600080831280156129f75761329c84615036565b9350612a0d6129338585670de0b6b3a76400006132de565b6000600160ff1b82106132c9576132c9613897565b5090565b600061250d83670de0b6b3a7640000845b6000838302600019848609818110820190038061331357836133085763ae47f7026000526004601cfd5b50829004905061250d565b8084116133285763ae47f7026000526004601cfd5b838587096000858103861695869004956003870260029081188089028203028089028203028089028203028089028203028089028203028089029091030291819003819004600101858411909403939093029190930391909104170290509392505050565b6000611058606061339d846138a5565b901b6001600160a01b0316613927565b600080806133bb85876150f5565b905060008660020b1280156133db57506133d5858761512f565b60020b15155b156133ee57806133ea81615069565b9150505b831561349b5760008061340083613c61565b90925090506000600160ff831681901b9061341b908261508c565b6134259190614fea565b600184900b600090815260208c905260409020548116801515965090915085613465578861345660ff851687615151565b6134609190615176565b613490565b8861346f82613c81565b6134799085615196565b6134869060ff1687615151565b6134909190615176565b965050505050613560565b6000806134b16134ac8460016151af565b613c61565b909250905060006134c9600160ff841681901b61508c565b600184900b600090815260208c90526040902054901990811680151596509091508561352257886134fb8460ff615196565b60ff166135098760016151af565b61351391906151af565b61351d9190615176565b613559565b888361352d83613d71565b6135379190615196565b60ff166135458760016151af565b61354f91906151af565b6135599190615176565b9650505050505b5094509492505050565b60808101516001600160a01b0316600090815260036020526040812060c08301518291829182918291829060018111156135a6576135a66148c9565b60018111156135b7576135b76148c9565b815260200190815260200160002060008760a0015160020b60020b8152602001908152602001600020604051806040016040529081600082015481526020016001820180548060200260200160405190810160405280929190818152602001828054801561364457602002820191906000526020600020905b815481526020019060010190808311613630575b50505050508152505090506000600460008360200151600185602001515161366c919061508c565b8151811061367c5761367c614cb4565b60200260200101518152602001908152602001600020600201549050806000036136be575050845160208601516040870151919550600094509250905061380f565b60006136f26136d089604001516132b4565b6128b36129336136ed868d606001516132cd90919063ffffffff16565b613e9c565b8851909150811115613702575086515b8088600001818151613714919061508c565b90525060008860c00151600181111561372f5761372f6148c9565b14613751578088604001818151613746919061508c565b91508181525061376a565b80886040018181516137639190614fea565b9150818152505b506040880151606089015161377e916132cd565b94506137978860400151866132cd90919063ffffffff16565b91506137a96128aa89602001516132b4565b8851909650156137ff5782516000906137c290846132cd565b89519091508111156137d2575087515b80896000018181516137e4919061508c565b9052506137f18184612d3f565b6137fb9088614fea565b9650505b5050855160408701519095509150505b9193509193565b6060831561388557825160000361387e576001600160a01b0385163b61387e5760405162461bcd60e51b815260206004820152601d60248201527f416464726573733a2063616c6c20746f206e6f6e2d636f6e74726163740000006044820152606401611e4b565b508161388f565b61388f8383613eb8565b949350505050565b6335278d126000526004601cfd5b6001600160881b03811160071b81811c68ffffffffffffffffff1060061b1781811c64ffffffffff1060051b1781811c62ffffff1060041b1781811c620100000160b5600192831c1b0260121c80830401811c80830401811c80830401811c80830401811c80830401811c80830401811c80830401901c908190048111900390565b60006401000276a36001600160a01b03831610801590613963575073fffd8963efd1fc6a506488495d951d5263988d266001600160a01b038316105b6139935760405162461bcd60e51b81526020600482015260016024820152602960f91b6044820152606401611e4b565b640100000000600160c01b03602083901b166001600160801b03811160071b81811c67ffffffffffffffff811160061b90811c63ffffffff811160051b90811c61ffff811160041b90811c60ff8111600390811b91821c600f811160021b90811c918211600190811b92831c97908811961790941790921717909117171760808110613a2e57613a24607f8261508c565b83901c9150613a3f565b613a3981607f61508c565b83901b91505b60006040613a4e608084615016565b901b9050828302607f1c92508260801c80603f1b8217915083811c935050828302607f1c92508260801c80603e1b8217915083811c935050828302607f1c92508260801c80603d1b8217915083811c935050828302607f1c92508260801c80603c1b8217915083811c935050828302607f1c92508260801c80603b1b8217915083811c935050828302607f1c92508260801c80603a1b8217915083811c935050828302607f1c92508260801c8060391b8217915083811c935050828302607f1c92508260801c8060381b8217915083811c935050828302607f1c92508260801c8060371b8217915083811c935050828302607f1c92508260801c8060361b8217915083811c935050828302607f1c92508260801c8060351b8217915083811c935050828302607f1c92508260801c8060341b8217915083811c935050828302607f1c92508260801c8060331b8217915083811c935050828302607f1c92508260801c8060321b8217915050600081693627a301d71055774c85613bd191906151d4565b905060006080613bf16f028f6481ab7f045a5af012a19d003aaa84615016565b901d905060006080613c13846fdb2df09e81959a81455e260799a0632f614ec3565b901d90508060020b8260020b14613c5257886001600160a01b0316613c3782613ee2565b6001600160a01b03161115613c4c5781613c54565b80613c54565b815b9998505050505050505050565b600281900b60081d6000613c776101008461512f565b60020b9050915091565b6000808211613c8f57600080fd5b600160801b8210613cad57608091821c91613caa9082615204565b90505b680100000000000000008210613cd057604091821c91613ccd9082615204565b90505b6401000000008210613cef57602091821c91613cec9082615204565b90505b620100008210613d0c57601091821c91613d099082615204565b90505b6101008210613d2857600891821c91613d259082615204565b90505b60108210613d4357600491821c91613d409082615204565b90505b60048210613d5e57600291821c91613d5b9082615204565b90505b6002821061181957611058600182615204565b6000808211613d7f57600080fd5b5060ff6001600160801b03821615613da357613d9c608082615196565b9050613dab565b608082901c91505b67ffffffffffffffff821615613dcd57613dc6604082615196565b9050613dd5565b604082901c91505b63ffffffff821615613df357613dec602082615196565b9050613dfb565b602082901c91505b61ffff821615613e1757613e10601082615196565b9050613e1f565b601082901c91505b60ff821615613e3a57613e33600882615196565b9050613e42565b600882901c91505b600f821615613e5d57613e56600482615196565b9050613e65565b600482901c91505b6003821615613e8057613e79600282615196565b9050613e88565b600282901c91505b600182161561181957611058600182615196565b6000611058613eb383670de0b6b3a764000061521d565b6138a5565b815115613ec85781518083602001fd5b8060405162461bcd60e51b8152600401611e4b9190615234565b60008060008360020b12613ef9578260020b613f06565b8260020b613f0690615036565b9050613f15620d89e719615267565b60020b811115613f4b5760405162461bcd60e51b81526020600482015260016024820152601560fa1b6044820152606401611e4b565b600081600116600003613f6257600160801b613f74565b6ffffcb933bd6fad37aa2d162d1a5940015b6001600160881b031690506002821615613fa9576080613fa4826ffff97272373d413259a46990580e213a61521d565b901c90505b6004821615613fd3576080613fce826ffff2e50f5f656932ef12357cf3c7fdcc61521d565b901c90505b6008821615613ffd576080613ff8826fffe5caca7e10e4e61c3624eaa0941cd061521d565b901c90505b6010821615614027576080614022826fffcb9843d60f6159c9db58835c92664461521d565b901c90505b602082161561405157608061404c826fff973b41fa98c081472e6896dfb254c061521d565b901c90505b604082161561407b576080614076826fff2ea16466c96a3843ec78b326b5286161521d565b901c90505b60808216156140a55760806140a0826ffe5dee046a99a2a811c461f1969c305361521d565b901c90505b6101008216156140d05760806140cb826ffcbe86c7900a88aedcffc83b479aa3a461521d565b901c90505b6102008216156140fb5760806140f6826ff987a7253ac413176f2b074cf7815e5461521d565b901c90505b610400821615614126576080614121826ff3392b0822b70005940c7a398e4b70f361521d565b901c90505b61080082161561415157608061414c826fe7159475a2c29b7443b29c7fa6e889d961521d565b901c90505b61100082161561417c576080614177826fd097f3bdfd2022b8845ad8f792aa582561521d565b901c90505b6120008216156141a75760806141a2826fa9f746462d870fdf8a65dc1f90e061e561521d565b901c90505b6140008216156141d25760806141cd826f70d869a156d2a1b890bb3df62baf32f761521d565b901c90505b6180008216156141fd5760806141f8826f31be135f97d08fd981231505542fcfa661521d565b901c90505b62010000821615614229576080614224826f09aa508b5b7a84e1c677de54f3e99bc961521d565b901c90505b6202000082161561425457608061424f826e5d6af8dedb81196699c329225ee60461521d565b901c90505b6204000082161561427e576080614279826d2216e584f5fa1ea926041bedfe9861521d565b901c90505b620800008216156142a65760806142a1826b048a170391f7dc42444e8fa261521d565b901c90505b60008460020b13156142c1576142be81600019615289565b90505b6142d06401000000008261529d565b156142dc5760016142df565b60005b61388f9060ff16602083901c614fea565b6040805160e081018252600080825260208201819052909182019081526020016000815260200160008152602001600081526020016000151581525090565b60405180610100016040528060008152602001600081526020016000815260200160008152602001600060020b8152602001600060020b81526020016000600181111561437e5761437e6148c9565b8152600060209091015290565b6001600160a01b0381168114611b8f57600080fd5b600080604083850312156143b357600080fd5b82356143be8161438b565b915060208301356143ce8161438b565b809150509250929050565b60008083601f8401126143eb57600080fd5b50813567ffffffffffffffff81111561440357600080fd5b60208301915083602060e0830285010111156124b857600080fd5b6000806000806040858703121561443457600080fd5b843567ffffffffffffffff8082111561444c57600080fd5b818701915087601f83011261446057600080fd5b81358181111561446f57600080fd5b8860208260051b850101111561448457600080fd5b60209283019650945090860135908082111561449f57600080fd5b506144ac878288016143d9565b95989497509550505050565b600060c082840312156144ca57600080fd5b50919050565b600080600061010084860312156144e657600080fd5b8335925060208401356144f88161438b565b915061450785604086016144b8565b90509250925092565b6000806000806080858703121561452657600080fd5b84356145318161438b565b966020860135965060408601359560600135945092505050565b8015158114611b8f57600080fd5b6000806040838503121561456c57600080fd5b82356145778161438b565b915060208301356143ce8161454b565b60008060006060848603121561459c57600080fd5b83356145a78161438b565b925060208401356145b78161438b565b929592945050506040919091013590565b634e487b7160e01b600052604160045260246000fd5b604051601f8201601f1916810167ffffffffffffffff81118282101715614607576146076145c8565b604052919050565b80356002811061181957600080fd5b600060e0828403121561463057600080fd5b60405160e0810181811067ffffffffffffffff82111715614653576146536145c8565b60405290508082356146648161438b565b815260208301356146748161438b565b60208201526146856040840161460f565b6040820152606083013560608201526080830135608082015260a083013560a082015260c08301356146b68161454b565b60c0919091015292915050565b60008061010083850312156146d757600080fd5b823591506124b5846020850161461e565b600080604083850312156146fb57600080fd5b82356147068161438b565b946020939093013593505050565b60006020828403121561472657600080fd5b813561250d8161438b565b6000806020838503121561474457600080fd5b823567ffffffffffffffff81111561475b57600080fd5b614767858286016143d9565b90969095509350505050565b600081518084526020808501945080840160005b838110156147a357815187529582019590820190600101614787565b509495945050505050565b60208152600061250d6020830184614773565b6000806000606084860312156147d657600080fd5b83356147e18161438b565b95602085013595506040909401359392505050565b600067ffffffffffffffff821115614810576148106145c8565b5060051b60200190565b6000602080838503121561482d57600080fd5b823567ffffffffffffffff81111561484457600080fd5b8301601f8101851361485557600080fd5b8035614868614863826147f6565b6145de565b81815260059190911b8201830190838101908783111561488757600080fd5b928401925b828410156148a55783358252928401929084019061488c565b979650505050505050565b6000602082840312156148c257600080fd5b5035919050565b634e487b7160e01b600052602160045260246000fd5b60028110611b8f57634e487b7160e01b600052602160045260246000fd5b80516001600160a01b039081168352602080830151909116908301526040810151614927816148df565b6040830152606081810151908301526080808201519083015260a0808201519083015260c0908101511515910152565b60e0810161105882846148fd565b600060c0828403121561497757600080fd5b61250d83836144b8565b600060e082840312156144ca57600080fd5b8151815260208083015190820152604080830151908201526060808301519082015260808101611058565b6000602082840312156149d057600080fd5b813561250d8161454b565b600080600080600060a086880312156149f357600080fd5b85356149fe8161438b565b9450614a0c6020870161460f565b94979496505050506040830135926060810135926080909101359150565b8183526000602080850194508260005b858110156147a3578135614a4d8161438b565b6001600160a01b0390811688528284013590614a688261438b565b16878401526040614a7a83820161460f565b614a83816148df565b90880152606082810135908801526080808301359088015260a0808301359088015260c080830135614ab48161454b565b15159088015260e0968701969190910190600101614a3a565b6001600160a01b0386168152606060208201819052810184905260006001600160fb1b03851115614afd57600080fd5b8460051b80876080850137820182810360809081016040850152614b249082018587614a2a565b98975050505050505050565b80546001600160a01b0319166001600160a01b0392909216919091179055565b8135614b5b8161438b565b614b658183614b30565b506020820135614b748161438b565b614b818160018401614b30565b506040820135600282015560608201356003820155608082013560048201556005810160a0830135614bb28161454b565b815490151560ff1660ff19919091161790555050565b8035614bd38161438b565b6001600160a01b039081168352602082013590614bef8261438b565b16602083015260408181013590830152606080820135908301526080808201359083015260a0810135614c218161454b565b80151560a0840152505050565b60c081016110588284614bc8565b6001600160a01b0386168152602080820186905260408083018690526060808401869052845160808501529184015160a084015283015160c083015282015160e082015261010081015b9695505050505050565b60008060408385031215614ca357600080fd5b505080516020909101519092909150565b634e487b7160e01b600052603260045260246000fd5b600081518084526020808501945080840160005b838110156147a357614cf18783516148fd565b60e0969096019590820190600101614cde565b6001600160a01b0384168152606060208201819052600090614d2890830185614773565b8281036040840152614c868185614cca565b6001600160a01b0384168152604060208201819052600090614d5f9083018486614a2a565b95945050505050565b60006020808385031215614d7b57600080fd5b825167ffffffffffffffff811115614d9257600080fd5b8301601f81018513614da357600080fd5b8051614db1614863826147f6565b81815260059190911b82018301908381019087831115614dd057600080fd5b928401925b828410156148a557835182529284019290840190614dd5565b6001600160a01b038881168252878116602083015260e0820190614e11886148df565b87604084015286606084015285608084015280851660a08401525082151560c083015298975050505050505050565b6001600160a01b038316815260406020820181905260009061388f90830184614773565b60e08101614e728285614bc8565b8260c08301529392505050565b600080600060608486031215614e9457600080fd5b8351925060208401519150604084015190509250925092565b634e487b7160e01b600052601160045260246000fd5b8082018281126000831280158216821582161715614ee357614ee3614ead565b505092915050565b60008060008060808587031215614f0157600080fd5b505082516020840151604085015160609095015191969095509092509050565b600060e08284031215614f3357600080fd5b61250d838361461e565b6001600160a01b038316815260406020820181905260009061388f90830184614cca565b6001600160a01b03841681526020810183905260c0810161388f6040830184805182526020810151602083015260408101516040830152606081015160608301525050565b6001600160a01b0387811682528616602082015260c08101614fc7866148df565b8560408301528460608301528360808301528260a0830152979650505050505050565b8082018082111561105857611058614ead565b60006020828403121561500f57600080fd5b5051919050565b8181036000831280158383131683831282161715612a2657612a26614ead565b6000600160ff1b820161504b5761504b614ead565b5060000390565b6040810161505f846148df565b9281526020015290565b60008160020b627fffff19810361508257615082614ead565b6000190192915050565b8181038181111561105857611058614ead565b60005b838110156150ba5781810151838201526020016150a2565b50506000910152565b600082516150d581846020870161509f565b9190910192915050565b634e487b7160e01b600052601260045260246000fd5b60008160020b8360020b8061510c5761510c6150df565b627fffff1982146000198214161561512657615126614ead565b90059392505050565b60008260020b80615142576151426150df565b808360020b0791505092915050565b600282810b9082900b03627fffff198112627fffff8213171561105857611058614ead565b60008260020b8260020b028060020b9150808214612a2657612a26614ead565b60ff828116828216039081111561105857611058614ead565b600281810b9083900b01627fffff8113627fffff198212171561105857611058614ead565b80820260008212600160ff1b841416156151f0576151f0614ead565b818105831482151761105857611058614ead565b60ff818116838216019081111561105857611058614ead565b808202811582820484141761105857611058614ead565b602081526000825180602084015261525381604085016020870161509f565b601f01601f19169190910160400192915050565b60008160020b627fffff19810361528057615280614ead565b60000392915050565b600082615298576152986150df565b500490565b6000826152ac576152ac6150df565b50069056fe416464726573733a206c6f772d6c6576656c2064656c65676174652063616c6c206661696c6564a264697066735822122056beca337934bf37a1775ffde28366311bc604666541380c388e09fa2f14860c64736f6c63430008130033",
    "linkReferences": {}
  },
  "methodIdentifiers": {
    "addLiquidity(address,uint256,uint256,uint256)": "1ece366a",
    "addMargin(address,uint256)": "cf70cb69",
    "cancelOwnershipHandover()": "54d1f13d",
    "closePosition(address,uint256,uint256)": "4fa9c4db",
    "closePositionKeeper(address,bytes32)": "c88d348a",
    "completeOwnershipHandover(address)": "f04e283e",
    "createLimitOrder((address,address,uint8,uint256,uint256,uint256,bool))": "7eb02406",
    "createLimitOrderBatch((address,address,uint8,uint256,uint256,uint256,bool)[])": "4a6ebce7",
    "createTriggerOrder((address,address,uint256,uint256,uint256,bool))": "68d85297",
    "deleteLimitOrder(uint256)": "e859f372",
    "deleteLimitOrderBatch(uint256[])": "517237a9",
    "deleteTriggerOrder(address,bytes32)": "f394ae49",
    "getAMMData(address)": "98712fe4",
    "getCumulativePremiumFraction(address)": "6ea41e40",
    "getCumulativePremiumFractionPerShare(address)": "d3123a80",
    "getFeeGrowth(address)": "b346679b",
    "getLimitOrder(uint256)": "53061026",
    "getOpenInterestNotional(address)": "429e9237",
    "getPosition(address,address)": "b33dc190",
    "getPositionNotionalUpnl(address,address)": "0e86a08d",
    "getTotalPositionSize(address)": "e980e16e",
    "getTriggerOrder(address,bytes32)": "39e50d86",
    "getValidAMM(address)": "9dda4e4f",
    "initialize(address)": "c4d66de8",
    "isActive()": "22f3e2d4",
    "isLiquidatable(address,address)": "3966a28b",
    "liquidate(address,address,uint256)": "26c01303",
    "liquidateMaker(address,address,uint256)": "7aefce97",
    "openPosition(address,uint8,uint256,uint256,uint256)": "cbb50e61",
    "owner()": "8da5cb5b",
    "ownershipHandoverExpiresAt(address)": "fee81cf4",
    "ownershipHandoverValidFor()": "d7533f02",
    "removeLiquidity(address,uint256)": "a201ccf6",
    "removeMargin(address,uint256)": "b959d695",
    "renounceOwnership()": "715018a6",
    "requestOwnershipHandover()": "25692962",
    "setActive(bool)": "acec338a",
    "setDivergenceCap(uint256)": "f8b6e449",
    "setValidAMM(address,bool)": "207b5b6f",
    "settleFunding(address)": "6b17ad03",
    "transferOwnership(address)": "f2fde38b",
    "updateLimitOrder(uint256,(address,address,uint8,uint256,uint256,uint256,bool))": "2a120de4",
    "updateLimitOrderBatch(uint256[],(address,address,uint8,uint256,uint256,uint256,bool)[])": "13dee2d1",
    "updateTriggerOrder(bytes32,address,(address,address,uint256,uint256,uint256,bool))": "18aec626"
  },
  "id": 43
}